:400000000040002011000000B9050000B905000080B500AF00F0D4FA80B500AF274B12221A6002F041F9264B181C01F0B5FF012002F04AF90C2002F001F8224B224A1A60F7
:40004000224B8022D2051A60214B214A126802210A431A601F4B204A1A60204B1F4A126808218A431A60FA23DB00181C02F0D6F81B4B181C02F0F8F91A4BFE2212021A605D
:40008000194B1A4A1A601A4BFE2212021A60164B184A1A60184B802212061A60174B40221A60174B41221A60084B8022D2051A60024B00221A60BD4680BDC04630001040A5
:4000C000001BB70004010B40060000800C020B4078002E407C002E406A2D00006CF02E40DC050000000301400000014040FF00800403014041FF008008010B4014010140F7
:400100001001014080B582B000AF72B63A4B00221A60FB1D00221A7023E0FB1D1A78131C5B009B185B00354A9B183B603B681A78597809020A43997809040A43DB781B06FB
:4001400013431A1C3B6819795B791B020B439BB2101C191C00F0B8FAFB1D1A78FB1D01321A70FB1D1B78012BD7D9254A254B101C191C00F0B9FA244B8022D2021A60234B79
:4001800000221A60224B00221A60224B992212041A60214B204A1278D2B202210A43D2B21A701E4B1D4A1278D2B23C218A43D2B214210A43D2B21A70174B174A1278D2B293
:4001C00016210A43D2B21A70154B01221A60154B8022D2021A60144B01221A60134B01221A60134B01221A60FFF716FF00F0BCFABD4602B080BDC0466CF02E40B4190100ED
:40020000C0190100D019010014000B40000002400800044020500F4000700F4001700F40000204400802044018020440000404401804044010B5064C2378002B07D1054B30
:40024000002B02D0044800E000BF0123237010BDD8030020000000003418010008B5084B002B03D00748084900E000BF07480368002B03D0064B002B00D0984708BDC046CF
:400280000000000034180100DC030020C80000200000000080B500AF00F030F802F006FC00F028F9114B1B78012B12D100F0F4F80F4B1B78002B04D00D4B00221A7001F04E
:4002C00055FA0C4B1B781A1C0123134001D000F029F8094B1B78002B06D0074B00221A70002000F0F1FAD9E7D8E7C046F4030020CC000020F5030020F603002080B500AFB8
:4003000062B6074B181C00F097FA062001F08EFD002001F091FB00F021FEBD4680BDC0467D03000090B583B000AF134B1B88013B9AB2114B1A80104B1B88002B18D10E4B79
:4003400005221A80002000F069FEC04600F0D4FE031C002BFAD101F041FBFC1D002001F05DFB031C2370FB1D1B78181C00F070F8BD4603B090BDC046CE00002080B584B070
:4003800000AF786039607B684C2B4CD87B689A00274BD3181B689F46264B01221A7043E0244B01221A703FE0234B1B78042B03D1204B01221A7037E036E01E4B01221A7082
:4003C00032E01E4A3B68111C1A1C0223081C111C1A1C02F056FB1A4B01221A7024E0184B00221A70174B00221A70174B01221A7000F052F818E03B68FB60FB689B890F2B5B
:4004000007D1FB685B681A780E4B1A700E4B01221A700A4B18680CF035FA05E03B681A780A4B1A7000E0C046BD4604B080BDC04680180100F603002008250020FC2400202B
:40044000F4030020F5030020F7030020F803002080B586B000AF021CFB1D1A700C4B1B78002B12D13B1C0C330E221A813B1C0C33FA1D1A603B1C0C3301229A80054B3A1C45
:400480000C321868111C0CF0B3F9BD4606B080BDF8030020FC24002080B584B000AF124B1B78002B1DD0104B00221A700F4B1A783B1C0C331A703B1C0C3300225A703B1C4C
:4004C0000F221A813B1C3A1C0C321A603B1C02229A803A1C064B101C00211A1C00230CF00FFEBD4604B080BDF7030020F5030020FC24002080B582B000AFFB1D00221A70A0
:400500002A4B1A782A4B1B789A4209D0FB1D01221A70274B1B78032B02D1264B01221A60234B1A78214B1A70204B1B78032B10D0042B2ED0022B00D032E0FB1D1B78002B0A
:4005400006D0FB1D00221A70002001F06FFC27E026E0184B1B685A1E164B1A60154B1B68002B15D1062001F061FC01F077FC031C012B06D1002001F033FC0E4B05221A60F7
:4005800006E0012001F02CFC0A4B14221A6007E006E0012001F024FC002001F047FCC046FB1D00221A70BD4602B080BDD000002008250020D400002080B500AFFEE7C04607
:4005C00080B586B000AF224B7B61224B3B61204B7B6135E03B691B68FB603B695B68BB603B699B683B6000237B600CE0FB681A68BB681A60BB680433BB60FB680433FB6017
:400600007B6804337B607A683B689A42EED13B69DB683B6000237B6008E0BB6800221A60BB680433BB607B6804337B607A683B689A42F2D13B6910333B617B69013B7B6171
:400640007B69002BC6D102F0E7F9FFF723FEFEE701000000C41E010080B582B000AF154B144A126801218A431A6000237B600FE07B68032B04D8104B7A689200D35800E0B7
:400680000E4B0F4A796889008B507B6801337B607B682F2BECD9FFF735FD0A4B00221A60044B044A126801210A431A60BD4602B080BDC0460000104000000000B905000030
:4006C00000000020C000002080B582B000AF786039607A683B68101C00211A1C02F0DAF9BD4602B080BDC04680B586B000AF7860396000233B6100237B612EE07B699B00D8
:400700007A68D3181B68BB603B1C0F33BA681A70BB68FF229343BB6017E03B695B003A68D3181B781A1CBB68D3183A69520039688A1852781A703B6901333B613B1C0F33E1
:400740001A783B1C0F33013A1A703B1C0F331B78002BE2D17B6901337B617B69032BCDD9BD4606B080BDC04680B500AF064B03221A60064B03221A60054B00221A60012006
:4007800000F008F8BD4680BD3000304030003140000E3F4080B584B000AF021CFB1D1A70154B1B68FB60FB1D1B78002B05D0FB68802212061343FB6003E0FB685B005B08A8
:4007C000FB600D4BFA681A600C4B1B68FB60FB1D1B78002B05D0FB68982292051343FB6003E0FA68064B1340FB60044BFA681A60BD4604B080BDC04680033A4008010B406B
:40080000FFFFFFD980B500AF064B00221A70064B00221A70054B00221A7000F009F8BD4680BDC046102500200E2500200F25002080B500AFBD4680BD90B585B000AF7860B0
:400840003B1C0E3301221A80194B1B78002B04D1FFF7D8FF164B01221A707B68002B1FD0144B7A681A603C1C0E34134A134B101C191C172202F030F9031C23803B1C0E3335
:400880001B88002B0CD10E4B01221A703C1C0E340C4B181C102112220CF01AFC031C23803B1C0E331B88181CBD4605B090BDC0460004002000250020890B00000804002086
:4008C00008250020941A010090B585B000AF021CFB1D1A702A4B1B78042B44D1294B1B78DBB21A1C042313403DD1FB1D1B78002B0DD1254B1E221A82234B5B689022520040
:400900001A80214B5B68A02252005A8010E0FB1D1B78012B0CD11C4B96221A821A4B5B68C822D2001A80184B5B68FA2212015A80164BFA1D12781A703C1C0E34124B181C3D
:400940000AF020FE031C23803B1C0E331B88002B08D10C4B1B78DBB204221343DAB2094B1A7005E004E03B1C0E33832252001A803B1C0E331B88181CBD4605B090BDC04695
:400980000825002010250020340100200F25002080B582B000AF78607B681B781A1C7B6801331B781B029BB213439BB2181CBD4602B080BD90B585B000AF78603B1C0F33DB
:4009C00000221A707B689A890B239A4237D17B681A1D7B683C1C0F34101C00211A1C40230CF08EFB031C23703B1C0F331B78002B1DD17B685B68181CFFF7CAFF031C1A1C4B
:400A0000022313409BB2002B08D0104B1B68822251007A68081C111C984708E00B4B1B680622111CFF317A68081C111C9847084B1B78DBB201229343DAB2054B1A703B1C88
:400A40000F331B78181CBD4605B090BD002500201025002090B585B000AF78603C1C0F347B68181CFFF7A6FF031C2370144B1B78DBB21A1C012313401FD13B1C0F331B7886
:400A8000002B16D03B1C083312229A707B689A893B1C08331A803B1C08333A1C0F321278DA707B683A1C08321868111C0BF082FE03E07B6818680BF0E5FEBD4605B090BD62
:400AC0001025002080B582B000AF7860BD4602B080BDC04680B500AF034B00225A70024B00221A70BD4680BD0C25002080B582B000AF7860BD4602B080BDC04680B500AF49
:400B0000BD4680BD80B584B000AF78603B1C0E3300221A707B689B79002B1CD13B1C0F3300221A7012E03B1C0F331B787A68D35C002B04D03B1C0E3301221A700BE03B1C38
:400B40000F331A783B1C0F3301321A703B1C0F331B78052BE7D93B1C0E331B78181CBD4604B080BD80B582B000AF021CBB1D1A80BD4602B080BDC04680B582B000AF786050
:400B8000BD4602B080BDC04680B584B000AF021C3960FB1D1A70904B1B78DBB201221343DAB28D4B1A70FB1D1B78712B00D9F7E09A008A4BD3181B689F463B1C0C330822F1
:400BC0001A703B1C0C3300225A703B1C0C33181C03F0E4F93B1C0C3301225A703B1C0C33181C03F0DBF97E4B1B68181CFFF78AFF031C002B05D07A4B1B68181C01F05AFF57
:400C00000FE0784B1A78784B1A70784B1A78764B5A70774B1A78744B9A70734B181C01F049FF03200AF070FB724B04221A70B8E03B68181CFFF75AFFB3E03B681A786E4BC7
:400C40001A70AEE0644B1B78DBB21A1C202313400ED16A4B1B78102B02D1684B0522DA70674B1A78654B101C191C0AF055FC98E097E03B68181CFFF77FFF92E03B68181C45
:400C8000FFF77AFF5B4B02221A708AE0594B04221A7086E0574B1B78022B34D04E4B1B78DBB21A1C012313402DD04B4B1B78DBB21A1C042313400BD04E4B03221A70464B6A
:400CC0001B78DBB204229343DAB2434B1A701AE0414B1B78DBB21A1C082313400BD0454B04221A703C4B1B78DBB208229343DAB2394B1A7007E03F4B1B78032B03D13D4BF0
:400D000004221A704DE04CE03B681B88181CFFF729FF46E03A4A3B68111C1A1C0223081C111C1A1C01F0ADFE354B1B789A00354BD318354A111C1A1C0423081C111C1A1C72
:400D400001F09FFEFFF7DAFE2BE0FFF7C3FE28E03B685B88162B05D83B1C0E333A6852881A8003E03B1C0E3317221A803B683A1C0E321288198800230904090C1B0C1B04AE
:400D80000B43181C111C0BF021FD0AE03B68181CFFF760FE05E03B68181CFFF793FE00E0C0460D4B1B78DBB21A1C112313400FD0094B1B78DBB201229343DAB2064B1A7045
:400DC000124B1B68FA1D11783A68081C111C9847BD4604B080BDC04610250020001C0100E00000207CF1FF0FD80000207DF1FF0F7BF1FF0F082500200E2500207C0100208F
:400E00000C250020801A0100042500200025002080B582B000AF00237B6007E00A4A7B68D31800221A707B6801337B607B68002BF4D000F00BF8002000F0AAFB00F078F9A2
:400E4000BD4602B080BDC0462C25002080B582B000AF244B1B68DAB2234B1A70224B1B787B607B680F2293437B60204B1B78DBB21A1C0F2313407A6813437B607B68F0228F
:400E800093437B60194B1B78DBB21A1CF02313407A6813437B60134B7A681A60144B154A1A60154B154A1A60154B1B687B607B680F2293437B607B68062213437B60104B09
:400EC0007A681A60102001F0AFFA0E4B1020191C01F01AFA1020032101F03CFABD4602B080BDC04600FF28401425002062F1FF0F0800284000020001040028400008A001ED
:400F000000040240D11A000080B582B000AF01F011F800F0C7FF0020002100F0D3FF0020002101F017F8FF2000F0A6FF402000F0EBFF084B1B687B607B68074A13437B6072
:400F4000044B7A681A60102001F058FABD4602B080BDC046040028400010088080B500AF0C4B1B78002B04D1FFF752FF094B01221A70FFF7C9FF00F015FE074B01221A7081
:400F8000064B064A12688021C9030A431A60BD4680BDC046A9100020A01000200400284080B584B000AF021CFB1D1A70FB1D1A78FB1D01321A70FB1D1B78012B00D10BE09D
:400FC000FB1D1B78074A101C191C00F0F9FA031CFB60FB68002BE9D0FB1D1B78181CBD4604B080BDA810002080B582B000AF7860084B00221A707B68DAB2074B1A70054BBD
:4010000081221A707B68181C00F080F9BD4602B080BDC046A2100020A310002080B586B000AF78602E4A7B68D3181A782D4B1A702D4A7B68D3181B787B617B69002B01D105
:4010400001237B61264A7B68D3181B781A1C7B69D318013BFB6000233B610AE0234A3B69D3181A7822493B69CB181A703B6901333B613B69002BF1D000233B611CE0194B2D
:401080001B78DBB21A1C3B699A420BD83A69FB689A4207D8154A3B69101C191C012200F0B1FA06E0114A3B69101C191C002200F0A9FA3B6901333B613B69002BDFD0094B53
:4010C0001B78DBB2002B08D10A4B41221A70054B1B78DBB2181C00F019F9BD4606B080BD201E0100A3100020241E0100A810002018250020A210002080B500AF044B1B78CC
:40110000DBB21A1C01231340181CBD4680BDC046A210002080B582B000AF7860034B7A685200D35A181CBD4602B080BDA410002080B582B000AF00237B6006E07B68181C81
:4011400000F064F87B6801337B607B68002BF5D0BD4602B080BDC04690B587B000AF786002237B610023391C13311A1C9218D3180B7000223B1C123392001A703C1C1134E9
:4011800000F013FF031C23701E4B7A699200D3581B68FB603B1C12331B780F22111C99400B1CDA43FB681340FB603B1C12331B780422141C9C40231CFA681343FB60124BC9
:4011C0007A699200D358104A796989008A581268391C133109780720041C8C40211CC9430A401A60074B7A699200D358FA681A603B1C11331B78181C00F0DBFEBD4607B041
:4012000090BDC046D81D0100F01D010090B589B000AF786002237B6100223B1C133392001A700023391C12311A1C9218D3180B700023FB61314A7B68D3181B78BB61304B83
:401240007A699200D3582E4A796989008A581268391C133109780F20041C8C40211CC9430A401A60BB69022B01D10023BB61BB69012B01D00623FB613C1C113400F095FE25
:40128000031C23701F4B7A699200D3581B68FB603B1C12331B780722111C99400B1CDA43FB681340FB603B1C12331B78FA69141C9C40231CFA681343FB60124B7A6992001F
:4012C000D358FA681A603B1C11331B78181C00F070FE0D4B7A699200D3580B4A796989008A58126800210120041C8C40211CC9430A401A60BD4609B090BDC0462C25002058
:40130000D81D0100F01D0100081E010090B589B000AF78603B1C173300221A703B1C17331A785E4B9200D358BB615D4A7B68101C191C00F045F9031C3B61BA69594B9A4204
:401340000AD83B69BA69111C99400B1CBB61BB69FF2212041343BB6100F0ECFD00F0A2FD514A7B68D3181B78013B9BB2181C002100F0A8FD4D4A7B68D3181B78013B9BB256
:40138000181C002100F0E6FDFF2000F075FD402000F0BAFD464B1B78002B39D0102001F043F8444B1B68FB61FB6940221343FB61FB6980229343FB613B1C0F333B497A68AC
:4013C0008A1812781A703B1C0E3337497A688A1812781A703B1C0F331A78131C1B039B1A1B041A1C3B1C0E331B78391C173108782A49800041584B439A4203D2FB698022EC
:401400001343FB612B4BFA691A60102000F0F6FF102001F009F8284B1B68FB61FA69274B1340FB61264A7B68D3181B781A1C25497B68CB181B781B041343FA691343FB6142
:401440001D4BFA691A601B4B1B68FB61FA691E4B1340FB61FB691D4A1343FB61102000F0CDFF7B68181CFFF777FE3C1C0D3400F09CFD031C23700F4BFA691A60002000F061
:401480008BFD134BBA691A603B1C0D331B78181C00F08FFDBD4609B090BDC0468401002028250020FFFFFEFF302500201C250020A1100020040028400800284000FF80FFB2
:4014C0002025002024250020FF1FDFFF200020000C00284080B586B000AF7860234B1B6899B2234B7A685200D15200237B61214B7A699200D258204B9A4215D81F4A7B68F1
:40150000101C191C00F05CF8031C3B61184B7A685200D35A1A1C3B69111C19410B1C99B2134B7A685200D1527B68181CFFF76EFE102000F079FF124B1B68FB60FA68114BF5
:401540001340FB60FB68A02212021343FB600C4BFA681A600C4B0C4A11680C4A0A401A60102000F04BFFBD4606B080BD0C002840A410002084010020FFFFFEFF28250020AB
:4015800004002840FF1FDFFF0800284000FF80FF80B584B000AF78607A68032313407B60064B1B68FB607B685B02FA681343FB60024BFA681A60BD4604B080BD04002840A4
:4015C00080B584B000AF786039603B68DB08FB603A680723134001229A403B1C0B331A707A68FB68D3181B783A1C0B3212781340DBB2002B01D0012300E00023181CBD462C
:4016000004B080BD80B586B000AFF860B9607A60BB68DB087B61BA680723134001229A403B1C13331A707B68002B0DD0FA687B69D318F9687A698A1811783A1C13321278FF
:401640000A43D2B21A700EE0FA687B69D318F9687A698A181278391C13310978C943C9B20A40D2B21A70BD4606B080BD80B584B000AF78600023BB600023FB6014E07B680E
:40168000181CFFF7B1FCC046FFF736FD031C012BFAD07B68181CFFF73DFD031CBA68D318BB60FB680133FB60FB68002BE7D0BB689BB2181CBD4604B080BDC04680B584B043
:4016C00000AF78603B1C0F3315497A688A1812781A70144B7A685200D15A134B7A685200D152124A7B68D31800221A70104A7B68D31800221A703B1C0F331B783A1C0F32F4
:4017000012780C49895C0C4AD154064B7A685200D15A0A4B7A685200D152BD4604B080BDD41D0100A4100020AC100020B0100020B410002090010020BC1000204025002092
:4017400080B582B000AF78607B68181CFFF74CFCC046FFF7D1FC031C002BFAD17B68181CFFF7ACFFBD4602B080BDC04680B582B000AF00237B6006E07B68181CFFF7E0FFB2
:401780007B6801337B607B68002BF5D0BD4602B080BDC04690B587B000AF78603B1C0F337A497A688A1812781A703B1C0F331A783B1C0E3376498A5C1A703B1C1033754A2A
:4017C000796849008A5A1A80734B1B78002B15D0724B7A685200D35A3C1C10343A1C10321288101C191C00F055F9031C23806B4B7A685200391C10310988D1527B68DAB2F0
:401800006749644B081C111C1A1C00F019FF654B7A685200D35A3A1C103212889A4212D3614A7B68D31800221A705E4B7A685200D25A3B1C1233391C103109888A1A1A8087
:4018400001237B610CE0574B7A685200D15A3B1C12333A1C103212888A1A1A8000237B617B69002B28D13B1C0F331B784F4AD35C3A1C123212889A421ED94B4A7B68D3180A
:401880001A784B497B68CB181B789A4209D37B68181CFFF713FF444A7B68D31800221A704CE0414A7B68D3181B780133DAB23E497B68CB181A7041E03B1C0E331B789BB282
:4018C0003A1C123212889A420CD93B1C0F331B78364AD35C3A1C123212889A422ED27B69002B2BD12F4B7A685200D35A1B02BB60304A7B68D3181B78BA681343BB603B1C25
:4019000010331B88BA68D318BB60264B7A685200D35ABA68D31ABB60BB681B0A99B2214B7A685200D152BB68DAB222497B68CB181A701D4A7B68D31800221A703B1C0E3364
:401940001B789BB23A1C123212889A4216D97B69002B13D03B1C12331B88FF2B05D9164A7B68D318FF221A700DE03B1C12331B88DAB211497B68CB181A7004E00E4A7B68F5
:40198000D31800221A70BD4607B090BDD41D010034250020A410002089010020402500205C250020AC100020382500203C25002088010020B0100020B410002080B582B0CC
:4019C00000AF78607B68181C00F066F97B68181CFFF7E0FEBD4602B080BDC04680B582B000AF00237B6011E00B4A7B68101C191CFFF7E6FD031C3B603B68002B03D07B6862
:401A0000181CFFF7DBFF7B6801337B607B68002BEAD0BD4602B080BDA810002080B582B000AF7860034A7B68D3181B78181CBD4602B080BDB410002080B584B000AF786088
:401A40003B1C0F3300221A7001213B1C0E333A1C0F3212788A181A703B1C0F331B780C4A101C191C0122FFF7CDFD3B1C0F331A783B1C0F3301321A703A1C0F323B1C0E33A4
:401A800012781B789A42E7D3BD4604B080BDC046A810002080B584B000AF0A1CBB1D011C19803B1D1A80BB1D1A883B1D1B88D318FB603B1D1B885B00FA68D318FB60FB68C7
:401AC0009B08FB60FB689BB2181CBD4604B080BD80B500AF102000F0A7FC2C4B01221A602B4B1B78DBB2181CFFF7F4FC294B1B78DBB2DBB25BB2002B08DA264B1B78DBB2D9
:401B000001229343DAB2234B1A703AE0204B1B78DBB2181CFFF744FA031C1A1C1C4B1A701B4B1B78DBB2002B06D1194B1B78DBB2181CFFF7EBFB24E0164B1B78DBB2012211
:401B40009343DAB2134B1A70124B1B78DBB21A1C4023134015D0104B00221A700DE00E4B1B780D4A12780D49895C0D4AD1540A4B1B780133DAB2084B1A70074B1B78002BC0
:401B8000EDD0102000F03AFCBD4680BD14002840A3100020A2100020C010002018250020A810002080B582B000AF324B01221A70304B01225A702F4B01229A702D4B0C2297
:401BC000DA802C4B2C4A9A802A4B2C4A9A6000F09BF800233B6007E0294B3A6892002949D1503B6801333B60224B5B781A1C3B689A42F1D800237B600CE0234A7B68D318E7
:401C000004221A70214A7B68D31801221A707B6801337B607B68002BEFD000F081F8154A1B4B101C191C00F055FC124B181C00F063FC184B01221A700E4A154B101C191C76
:401C400000F048FC0B4B181C00F07AFC094B181C00F080F800237B6006E07B68181C00F01BF87B6801337B607B68002BF5D0BD4602B080BD5C250020CC040000381E0100D3
:401C8000840100200000FF0F1C250020302500209A0D0000A110002080B584B000AF7860144A7B68D3181B78FB603B1C0B331249FA688A1812781A703B1C0B331B785B0886
:401CC000DAB20E49FB68CB181A703B1C0B331B785B08DAB20A49FB68CB181A703B1C0B331B78DB08DAB20749FB68CB181A70BD4604B080BDD41D01008C0100203425002034
:401D00003C2500204425002080B500AF034B034A126840218A431A60BD4680BD0400284080B582B000AF094B1B687B607A68084B13407B607B688022920013437B60034B8B
:401D40007A681A60BD4602B080BDC04608002840FFFCFFFC80B584B000AF78600023FB6017E01A4AFB68D3181B785B08DAB21849FB68CB181A70154AFB68D3181B7801336B
:401D80005B08DAB21149FB68CB181A70FB680133FB607B681B781A1CFB689A42E1D8102000F042FB0B4B1B68BB60BA680A4B1340BB60BB68094A1343BB60064BBA681A606A
:401DC000102000F01BFBBD4604B080BD202500202425002008002840FFFCFFFC0002000180B584B000AF021CFB1D1A700E4B1B68DAB23B1C0F3340218A431A70FB1D1B7846
:401E00009B01DAB240231340D9B23B1C0F333A1C0F3212780A431A70034B3A1C0F3212781A60BD4604B080BD0002044080B582B000AF021CFB1D1A70064B064A1168064A45
:401E40001140FA1D127892040A431A60BD4602B080BDC04608020440FFFFE3FF80B500AF044B1A68402313409B09DBB2181CBD4680BDC0460402044080B582B000AF78609F
:401E8000C046064B1B68002BFBDB044B7A68120203490A431A60BD4602B080BD000001404000008080B500AFC046044B1B68002BFBDB024B024A1A60BD4680BD00000140AB
:401EC0004000004080B584B000AF0A1CBB1D011C19807B1D1A700B4B1A6807231340FB60BB1D1B881A02FB681A437B1D1B78D900FF230B401343BB60024BBA681A60BD469F
:401F000004B080BD0003014080B582B000AF7860C046064B1B68002BFBDB044B7A68120203490A431A60BD4602B080BD000001404100008080B500AFC046044B1B68002B70
:401F4000FBDB024B024A1A60BD4680BD000001404100004080B584B000AF0A1CBB1D011C19807B1D1A700B4B1A6807231340FB60BB1D1B881A02FB681A437B1D1B78D9007D
:401F8000FF230B401343BB60024BBA681A60BD4604B080BD040301400230800803D00138FDD1C046C046C0467047EFF3108072B6704780F31088704780B500AF0B4B0B4A1F
:401FC000126801218A431A60094B094A126830218A4310210A431A60054B054A126807218A4301210A431A60BD4680BD00F02E4000FF2E4080B500AF0E4B0E4A1268022193
:402000008A431A600C4B0C4A126807218A4302210A431A60084B084A126830218A4320210A431A60034B034A126801210A431A60BD4680BD00F02E4000FF2E4090B585B08B
:4020400000AF78607B68022B00D8BAE07B68302B00D9B6E05E4B1B78DBB21A1C7B689A420AD35C4A3B1C0F3312781A705A4A3B1C0E3312781A703FE0584B1B78DBB21A1C54
:402080007B689A420AD3564A3B1C0F3312781A70544A3B1C0E3312781A702DE0524B1B78DBB21A1C7B689A420AD3504A3B1C0F3312781A704E4A3B1C0E3312781A701BE0CB
:4020C0004C4B1B78DBB21A1C7B689A420AD34A4A3B1C0F3312781A70484A3B1C0E3312781A7009E0464A3B1C0F3312781A70454A3B1C0E3312781A707B68DA1E3B1C0C3306
:4021000041498A5C1A703C1C0B34FFF74EFF031C23703B1C0C331B782F2B0DD97B682A2B0AD93A4B19221A600520FFF735FF3B1C0D3319221A7007E0344B1B68D9B23B1CE5
:402140000D333F220A401A703A1C0C323B1C0D3312781B789A4208D22C4B7A68033A2A498A5C1A600520FFF717FF294B7A68254952181278D2B21A60264B3A1C0F3212780A
:402180001A60254B3A1C0E3212781A60052000F06BF93A1C0C323B1C0D3312781B789A4208D91A4B7A68033A17498A5C1A600520FFF7F2FE3B1C0B331B78181CFFF7F9FE85
:4021C00002E0002000F046F9BD4605B090BDC046C0F1FF0FC1F1FF0FC2F1FF0FC3F1FF0FC4F1FF0FC5F1FF0FC6F1FF0FC7F1FF0FC8F1FF0FC9F1FF0FCAF1FF0FCBF1FF0F6D
:40220000CCF1FF0FCDF1FF0F701E01002CFF0B4028FF0B401CFF0B4020FF0B4080B584B000AF78600023FB60154B154A126801210A431A60134B144A1A60144B134A1268C4
:40224000802109020A431A607B68002B13D01023FB600DE0012000F007F900F019F8031C002B02D00023FB6005E07B68013B7B607B68002BEED1FB68181CBD4604B080BD9C
:4022800060F02E4078002E400220000010002E4080B500AF034B1A6801231340181CBD4680BDC0460C002E4080B500AFFFF784FE044B044A1268802109060A431A60BD46CE
:4022C00080BDC04600F02E4080B584B000AF78600C4B1A6801231340FB607B68002B02D0012B03D005E0FFF767FE06E0FFF782FE03E0002000F0AEF8C046FB68181CBD46EE
:4023000004B080BD00F02E4080B584B000AF021C3960FB1D1A7080239B05FB60FB1D1B781F2B02D9002000F095F8FB1D1B7810339B00FA68D3181B68BB60FB1D1B78103370
:402340009B00FA68D3183A681A60BB68181CBD4604B080BD90B587B000AF0A1CFB1D011C1970BB1D1A70BB1D1B78032B02D9002000F070F8FB1D1B781F2B02D9002000F0D1
:4023800069F8FB1D1A7803231340DB0006337B613C1C1334FFF709FE031C2370FB1D1B789B08DBB29B0014495B181B68FB607B690322111C99400B1CDA43FB681340FB60D3
:4023C000BB1D1A787B69111C99400B1CFA681343FB60FB1D1B789B08DBB29B00064A9B18FA681A603B1C13331B78181CFFF7E1FDBD4607B090BDC04600E400E080B582B08A
:4024000000AF021CFB1D1A70064BFA1D11781F220A400121081C9040021C1A60BD4602B080BDC04600E100E080B582B000AF021CFB1D1A70064BFA1D11781F220A400121D6
:40244000081C9040021C1A60BD4602B080BDC04680E100E080B582B000AF021CFB1D1A7001BEBD4602B080BD80B582B000AF021CBB1D1A80BB1D1B88044A12785343181C4D
:40248000FFF78AFDBD4602B080BDC046A0010020F7B59C180023071C01910092237008268025207828432070B96800984A6A9047019B984202D22078A8432070013E6D08CE
:4024C000002EEED12178CFB2F82F01D9082671422170F7BD70B5051C0E1C00242B789C4208D2A868221C0368311C281CFFF7D0FF0134F3E770BD000038B5051C00242B789F
:402500009C4218D2AA681168085DC3080F2B00D90F230949D268C85C1055AA680748042B03D9536B211C012202E0536B211C002298470134E3E738BD281E010028250020AE
:40254000F0B5051C89B000266B789E4265D2AC68206A815D0291002901D101220292E7692978BB5D00930098884201D30136EBE7A268009F0F21D35DA4690B402849B0001E
:40258000049300227B00225003905818254C0590254819191B18069107933C1C0192009F029AD1198C42E1D2AF68AB88FA68E888115D584300F0CEF93968095D00F07CF990
:4025C000049B1A49584340005A2802D949084008FAE7BF690A0C039913047B50144F154B8208385514491A55144AC0080F27085517550199012305985A424252069A0798D6
:40260000002353524352A9688B681A191078013407401770019A0232C0E709B0F0BDC0465025002068250020542500200000FFFF582500206C2500204C2500204825002054
:40264000F0B53E4F4B00DC5B9A5A89B0DA53161B3B4F02967D5C9C466C003A4D059467467C5B394E394F735C03946646F55B8768374C0495BD68665C6C5C029D0696059E25
:40268000EF0F0794F4190F273C40EE170194AC1974409C4203D2012B05D0013B00E00133FF263F2B00D89E00274D019F6B540F2F29D0002F24D0B44225D8079C039D260914
:4026C0000596141EAC4200D92C1C049FBA4200D23A1C059E09250027B5427F41F5190A2D13D1171B0397039E5F1CB34205D9069FBE089E42BF417E429F1B164B5F5404E0E7
:40270000141C019D01E0141C00256E4637790C4B66465F540B4F0F23BC530C4C2D01A253826897687E183478234033708068826851180F783D430D7009B0F0BD5425002076
:4027400048250020502500204C25002068250020582500206C25002080B582B000AF78600A1CBB1C1A80BB1C1A887B681A60BD4602B080BD80B582B000AF78600A1CBB1C73
:402780001A80BB1C1A887B681A60BD4602B080BD80B582B000AF021CBB1D1A80BB1D1B88181CFFF761FEBD4602B080BD80B500AF00F068F8BD4680BD80B500AF00F06CF86F
:4027C000BD4680BD80B500AF00F066F8044B181C00F024F8022000F02DF8BD4680BDC046AD28000080B500AF024B181C00F004F8BD4680BDAD28000080B582B000AF786032
:4028000000F04AF87B68181C00F008F8022000F011F800F037F8BD4602B080BD80B582B000AF7860024B7A681A67BD4602B080BD0000002090B585B000AF021CFB1D1A709A
:402840000623FB603C1C0B34FFF7AFFB031C23700B4B0B4A1268C021101C8843011CFA1D1078FA68041C9440221C0A431A603B1C0B331B78181CFFF79CFBBD4605B090BDE9
:402880000CE400E080B500AF024B802252011A60BD4680BD00E100E080B500AF024B802252011A60BD4680BD80E100E080B500AF0EF0ACFFBD4680BD002934D00123002246
:4028C00010B488422CD301242407A14204D2814202D209011B01F8E7E400A14204D2814202D249005B00F8E7884201D3401A1A434C08A04202D3001B5C0822438C08A04235
:4029000002D3001B9C082243CC08A04202D3001BDC082243002803D01B0901D00909E3E7101C10BC7047002801D00020C04307B4024802A14018029003BDC046D9000000E7
:402940000029F0D003B5FFF7B9FF0EBC4243891A1847C046002941D010B4041C4C40A44601230022002900D54942002800D5404288422CD301242407A14204D2814202D266
:4029800009011B01F8E7E400A14204D2814202D249005B00F8E7884201D3401A1A434C08A04202D3001B5C0822438C08A04202D3001B9C082243CC08A04202D3001BDC081E
:4029C0002243002803D01B0901D00909E3E7101C6446002C00D5404210BC7047002806D003DB0020C043400801E08020000607B4024802A14018029003BDC046190000008B
:402A00000029EBD003B5FFF7A7FF0EBC4243891A1847C0467047C04670B50E4B0E4D0024ED1AAD101E1CAC4204D0A300F35898470134F8E70FF034FA084B094D0024ED1AAB
:402A4000AD101E1CAC4204D0A300F35898470134F8E770BDAC1E0100AC1E0100AC1E0100B41E010030B50023934208D0C55C0133CC18013C2478A542F6D0281B00E00020A4
:402A800030BD10B50023934203D0CC5CC4540133F9E710BD031C8218934202D019700133FAE7704710B501F015FA10BD10B500F0DBF810BD10B507490446097802200029B1
:402AC00007D1204601F02CFA002802D1204608F005FD10BDBA020020F7B51F4E0024307815460F46002804D00824B76075802046FEBD002F00D1012401F0ECF900980028D8
:402B000005D0172D03D301204002854201D90124EBE7002CE9D12946384600F023F80400E3D1706800F01CF80400DED1706800F015F80400D9D101F0D5F90400D5D1009802
:402B400006F084F80400D0D106F096F80400CCD101203070C9E70000A80100200020704700207047F8B50D4607460026FFF73AFEFFF722FE00F03EFA040065D100F0C8FB65
:402B8000040061D13449084600F086FD0404240C5AD1A80705D0A807800F0421081A401985B2172D02D968002E3886B22B48301881B2384601F072F8040045D1284F0346DF
:402BC0000246002825D127495E008E5B294610318E4207D99000C01941800221521C4170D2B215E08E420BD10020787690001D49C0194680891FC95C891C4170012012E0EE
:402C0000052A06D1164806461436418302207071012014495E008E5B9100C9194E80114EB61FF65C4E705B1C521CDBB2D2B2062BC7D30B4800F06CF8002C05D100F084F8B3
:402C400007490120891E087000F0E6F9002C01D0FF20F8BD0020F8BD7D2C0000940C0000B6010020061F010010B503480078012801D100F0A3FE10BDB4010020704700009C
:402C800010B5011F0878034A8000105800F0A6FF10BD0000C410002010B5044604498000085800F009FF002801D00470001D10BDC410002038B5044692B2C9B2684600F011
:402CC00021FF024AA1000098505038BDC410002070B50B49064600204C6805466178002908D06188B14202D32078FFF7D5FF002804D1241D6D1CEDB2082DEFD370BD00004B
:402D0000D801002010B5002801D0FFF7B9FF10BD70B50B4E0446002570606178002905D062882078121D0023FFF7C4FF6D1C241DEDB2082DF1D3024800F0A2FFB06070BDC6
:402D4000D8010020002070471CB5002469460C70142001902346054A05480CF043F904480068401C00D1FF2420461CBDC52D0000E40100203EB5124A0146FF20002301242A
:402D8000126800290DD0012914D0042908D104206946009308814B8110460CF01EF980B23EBD6846009304814381694610460CF00FF9F4E768460093048143816946EBE7B5
:402DC000E401002070B54589046841680089030000F026F806240408081D2124002004F00DFF1BE0022908D0C8B22A4621460AF0E5FB2046FFF786FF10E002202A46214679
:402E00000AF0DCFB2946204600F018F806E000200BF0DCFD02E020460CF06AF9002070BD30B47446641E2578641CAB4200D21D46635D5B00E31830BC18470000014B0022F0
:402E4000DB681847E801002010B542890168094B00899C68022803D0032804D0FF2010BD0023012003E0121D002392B20220A047002010BDE8010020704700000248002107
:402E80004160018041807047E801002070B50C46002186B016460391012802D0022859D116E003A9012005F00CFE01281BD1039D324621462846FFF7E4FD00952878019001
:402EC0000220694608814E816846FFF7BDFF41E0214D002B686809D0049004A9022005F0F0FD01281DD0022006B070BD002812D0298840182146FFF7C4FD288800248019E8
:402F000080B228806988091D884206D12C801348FFF79AFF03E00320E6E788421AD96C6018E004986860E278A378110219430B4A698000231060E356536003231381518184
:402F4000A1788170E178C1706178417021780170042028800020C7E7E8010020E4100020F7B5022784B016460546022802D0042D29D106E0059800900195684607814281F9
:402F800013E01046FFF7A4FE040016D032460599FFF777FD68460195009407810B4B4681DB6800223146059898470948694600680CF013F8012007B0F0BD044B0022DB6849
:402FC0003146059898470020F5E70000E8010020E4010020014AD16090607047E8010020034801688068081A0A21484300097047F010002010B5FFF7E5FB542204490548A9
:40300000FFF73FFD03490120C870002010BD0000161F01004013002010B5FFF7C7FB10BD70B5134C2368002B08D0207B1149C20705D04008400020738868A08070BD8868EC
:403040000B4AA18880B29268814203D90A4D691A091802E0814202D2411A5118A160A080A0689842EAD300F015F80BF0D3FF70BDF0100020C0102E40FFFF000010B50846A9
:403080001946FFF7A7FF10BD704710B5FFF768FF10BD000003480021016041608160C16070470000F010002010B502000DD0FFF7F1FF074C0321207B0843207310010A21A5
:4030C000FFF73EFC2060002010BDFF2010BD0000F010002000B504480A21806848430209FFF7D8FF104600BDF01000200248007B8007C00F70470000F010002070B55849C5
:403100000868002802DA574B01221A70022290430860554800695249C00B4031096A08426CD0012000F074FA4F4850497C30FFF721FB4B480E216C30FFF71CFB4A482021EC
:403140008430FFF717FB484814219C30FFF712FB4548FF21C131A430FFF70CFB4248FF212F31B030FFF706FB3F484149BC30FFF701FB3D483F49AC30FFF7FCFA3D493A48E2
:40318000491CB430FFF7F6FA37483B49B830FFF7F1FA35483949CC30FFF7ECFA324838490830FFF7E7FA30483649A830FFF7E2FA2D4835498830FFF7DDFA2B4833498C306F
:4031C000FFF7D8FA28481921C9029030FFF7D2FA2F4D287E697E0C020443A87FE97F2D4A090201432C48914201D1072C08D035229201914208D1042C05D005E0FF2070BD6D
:403200000146042400E0014617486C30FFF7B2FA154821467430FFF7ADFAA87EE97E0902014301204003814201D0002900D11B490D487830FFF79EFA2A7F687F01021848A6
:403240001143814204D01748814201D0052901D113490A3904488030FFF78CFA002070BD00F02E40F801002000002E4055650000320300002F3F0000310200001052000035
:40328000EC160000FA12000031D000003AE30000C0F0FF0F580B0000580D0000022000000F0F00000505000070B50646581C80B245086D00002408E0304600F07FF81055F3
:4032C000000A1119A41C4870A4B2AC42F4D3D80705D0D0182038D15CC47FD454C17770BD30B50A4C002100195B1E07E0541864782502545C2C430480891C89B29942F5DBB4
:40330000994201D1515C018030BD000000102E4010B5FF2000F07CF90F49FF2088700E481021801D41800121417001700A490020091D4870FFF7E2FE04000AD100F0C8F8B0
:4033400007210648FFF708FA044807211830FFF703FA204610BD0000F8010020CC112E4030B504465B1C1804450C002308E0204600F024F8241D59005B1CA4B250529BB2B3
:40338000AB42F4D330BD000070B500210A4D5B1E0AE0541864782602545C344346193480001D891C80B289B29942F2DB994202D1515C4019018070BD00102E400149401869
:4033C0000088704700102E40014A80180180704700102E4010B508490020487000F078F807210648FFF7B8F9044807211830FFF7B3F9002010BD0000FC010020CC112E4059
:4034000010B50B46062812D006DC01280CD0032801D1FFF7DFFF10BD0A28FCD00B28FAD105480078107010BDFFF772FF10BD1146184600F01FF910BDFE010020F8B5214DDB
:40344000AC6A0127A007204E002818DA3078062810D1286A384328621C480069F903084381B21A481030FFF785F9301F4770042000F0CEF8134802212830FFF76DF9E0073B
:4034800011D0062000F0C4F80F49FF20091F88707078002802D1686B38436863094801212830FFF759F9E0050BD53078042802D1052000F0ADF80348FF2101312830FFF7A2
:4034C0004BF9F8BD40F02E40FC01002000002E4010B503212348FFF74DF90120FFF758F920483038406A204C80076178800F890001431C480C38FFF73DF96078002808D064
:40350000401E022181401820FFF77AFAC000083800E0B82081B21548FFF72CF91348032109021438FFF726F910481149B830FFF721F9452189010F48FFF71CF90D480321E4
:40354000001FFFF717F90C490C48FFF713F90B480B496038FFF70EF9084801218838FFF709F910BD70F02E40FE010020D8102E4090890000041E2E40FF0F000058122E4076
:40358000209000000849087806280BD148780749002803D1486B400840004863C86A01221043C86270470000FC01002040F02E400148007870470000FC01002000B50300FD
:4035C000FFF72EFC080D050D0B070507090D012000BD032000BD042000BD022000BDFF2000BD0000074A9168D26889B2064B92B2994204D105498A4201D1012100E00021E3
:403600000170704780002E4033D000003FE3000010B50446FFF7D0F8072C01D9FF2C01D102480470FFF7C2F810BD0000FC0100200149887070470000F801002010B50A4AF5
:40364000141D012808D009491046FFF793F808492046FFF78FF810BD04491046891CFFF789F80349491DF3E788002E4031D000003AE300000078074AFF2803D04C2804D97B
:40368000553803E01078087070474F380870107070470000FB01002010B50F4A002313600E4A13600E4B18600E4801600E49012008600E490860000290600E490C480860E6
:4036C0000D4914300860FF381538506000F0BCF800F0CAF9002010BD1C0200200402002030020020340200202002002010020020001200201402002028020020014610B512
:403700000020002910D0094B1A689C685118A14209D25868196080188A0704D08A07920F891A091D196010BD002010BD04020020F8B50024164E671E321F3D463168136833
:4037400006E01422624310328A58521C1BD0641C9C42F6D36A1C14D02C461422544322460C3288500C214843FFF7C8FF3168002808510AD031680020103408517068401CCA
:4037800070602846F8BD2546E4E73846F8BD000014020020F3B50026F64381B000281BDB1E490968884217D80299002914D01B4F142204463F1D5443254639681035485919
:4037C000401C09D0FEF7F8FF38682F1F4159C359994203DBFEF7EAFF3046FEBD214608310091465801590C20704308180C220299FFF747F90948761C001D0068C159B142A0
:4038000000D100260549009A091D865008684159491C4151FEF7CAFF0020FEBD10020020002803DB07490968884202D90020C043704704491422091D09685043103008584E
:403840007047000010020020F0B500200D4A451E0346171F50600FE014260146714314680E1DA3510C461668083433511668083435511468401C635039688842ECD300204D
:40388000F0BD000014020020F3B50026F64381B0002841DB2349096888423DD8029900293AD0204F142204463F1D54432546396810354859401C2FD0FEF77EFF3868415944
:4038C00000292BD0211D009146580C21005971430F46C1190C220298FFF7D3F811480021001D0068761C00590C34C0190160416081600C48001D00680159B14200D1002642
:403900000849009A091D865008684159491E4151FEF74CFF0020FEBD3046FEBDFEF746FFFAE7000010020020FEB504460D4600201E49089E0860471E009001900290002CDB
:4039400011D0486885420ED2002A0CD0002E0AD0642E08D808460C3001681C2068430C18207A002801D03846FEBD0120226020721846FFF7DDFE6060401C13D06681A68154
:403980000A4827610C3067610179A94200D205710021684601810A462846029B00F040F82846FEBD00202072DDE700001C02002038B50124009400F039F838BDFEB5002735
:4039C000164EFF433D4600240EE01C20316860430818017A002906D04068FFF721FF002801D0254603E0641C3079A042EDDA681C12D01C2130684D434419FEF7DDFE6946FC
:403A00006068FFF741FF0546FEF7D0FE002DD9D1216868468847D5E7FEBD00002802002038B50024009400F001F838BD1FB500220C49541E0A60002811DB496888420ED8BD
:403A400008491C220C31096850430818406801A9FFF7A0FE401C02D0002004B010BD2046FBE700001C020020F0B50021114A4D1E174611710C3F0B46BD6016E008461C2473
:403A800060431668041D355114680646235014680836A3551468361DA353044616680A34335318301468491C255078688142E5D30020F0BD2802002038B500210091002829
:403AC00011DB0F49097888420DDA0D4D04010C3529680859002807D0201D0818694600F05FF9002801D0002038BDFEF765FE28680F34015D491E0155FEF758FE009838BD3F
:403B000038020020F7B582B00025ED43029800240E460560002A49D0002E47D02D48D21C02402D48174601780C30006805E022018258002A0FD0641CE4B28C42F7D3691C47
:403B40003ED02C01211D40180191314600F016F900282BD101E02546F1E71F480C30016820460C300F521C480C30016820460E300E5419480C30016820460F300E5438467B
:403B8000704300F0ADF814490C310968002808510CD00024009011E00F480C30016801980818009900F017F9002802D0012005B0F0BD0098C019641CE4B20090B442EBD31A
:403BC0000298054905600C310879401C08710020EDE70000FCFF000038020020F8B50D4600216A468C461180002839DB23490978884235DA214B04010C3319680A59002AA8
:403C00002ED020460C300B5A801C0E5C184670438018954224D3854222D2002006E007465F43BF18AF4206D0401CC0B2B042F6D36046002814D0114E271DC8190C366A4603
:403C4000294600F0F2F800280AD168460088012808D030682946C01900F0BDF8002803D00120F8BD0020F8BDFEF7A6FD30680F34015D491C0155FEF799FDF3E7380200204B
:403C800003460020002B06D0034A5168906852884018511A198070473802002070B5002400F0DCF80D4E002132460C3271600EE0200113680546195013680C355953AD1CD6
:403CC00013680F3059551368641C1954E4B230788442EDD31171002070BD000038020020014610B5002000290CD0C91C064B8A08596892005C888A18A24202D898685A60BD
:403D0000401810BD002010BD38020020F8B5002827DB19490978884223DA174C05010C342168485900281CD028460C30085A009028460E300E5C401C0E5420682F1DC01992
:403D400000F064F800280CD12068002445590EE0094829460C300068C01900F03CF8002801D00120F8BD00982D18641CE4B2B442EED30020F8BD00003802002030B50D4679
:403D800004000BD0A800FFF7ABFF6060002805D000202570C0436080002030BD012030BD70B50D46040005D0002D03D00220205E002801DA012070BDFEF7FEFC0221615E59
:403DC00060688900405828606088401E6080FEF7EDFC002070BD70B50D46040007D0002D05D002212078615E401E814201DB012070BDFEF7E1FC6088401C00B26080616876
:403E000080000D50FEF7D2FC002070BD10B5040009D0227800216068FEF73CFE0020C0436080002010BD012010BDF0B500231D46002802D00224045F0AE00120F0BD46684F
:403E40009F00F6598E4201D1012503E05B1CDBB29C42F4DA15700020F0BD0000054B11221A70054A1180064A044911600549086070470000380200203A0200203012002027
:403E8000440200204002002001480078704700004C0200207CB505460024FEF703FEA8796946087000A8062229460130FEF7E9FD0021684604F000F90C2804D0072804D064
:403EC0001F2804D004E0022402E0042400E0272420467CBD10B500F0BDF8FFF769FBFFF76DFB10BD10B503240BF07CFD002810D10BF020FD00280CD104F032FE002808D12F
:403F000000F060FA002804D104F030FB002800D10024024900200870204610BD4C02002070B50025044600280ED0A07901280BD8FEF7B8FDA0790028204602D002F008FEA0
:403F400003E002F0BDFD00E00125284670BD38B504460120002C20D0617801291DD800290BD0FF25E535FEF79DFD2846FFF726FAC0B22070072803D00EE0FF25CD35F2E75F
:403F80000020694608706846FFF72CFB69460878012801D108202070002038BD70B504460120002C1FD06178012902D92278092A19D8002906D0FF25E5352078072609287E
:403FC00003D003E0FF25CD35F7E72670FEF76AFD2078082808D00020FFF730FB21782846FFF7F2F9002070BD0120FFF727FB2670F4E7000070B50D46040001D0002000E008
:404000000548002802D0012101F0D4FF2946204602F0AEFA70BD0000B413002038B5054600200446009022466946284600F062FE0098002801D00BF0B7FCA878214602F011
:40404000DBF8A878214602F0CAF8641CE4B2052CE9D338BD38B5FFF7ABFA224C2178012911D0062813D0032836D007280AD100206946087002460120FFF7C2F9FFF798FA6B
:404080000128FBD138BD20780128FCD038BD02F01BF9FFF78DFA0128FBD120780128FCD0A12424012046FFF789F901210E4A83079B0F1170022BE9D15288002AE6D00143B3
:4040C0002046FFF781F92046FFF778F9410849002046FFF779F938BD02F0FAF80120FFF797FA38BDF901002052020020F8B50646002402F03FFE0546304602F053FE002148
:404100000346012632468A40174610462F401840002F03D0002801D1224394B2491CC9B20529EFD32046F8BD1CB50020694648706846FFF70CFF01AA69460A20FFF760F9E7
:404140006946042008561CBD10B50C4601F076F9002809D00179002906D0C1788078224602F0B4FA002010BD022010BD0148007870470000801300204030C07E002800D05E
:404180000120704700B500F001F800BD88214843064940186030417F491CC9B24177052901D300214177C8B2704700009413002013B501F043F904000BD001F0CEFC00287F
:4041C00007D0214601AA0A310620FFF719F900201CBD02201CBD000010B50C4601F02EF900280AD001F0B9FC002806D0224604490A20FFF705F9002010BD022010BD0000F5
:4042000069130020F3B581B0074601460026029802F0A8FD0446002F01D0002500E0154D002D21D0284601F03FF9032C04D13946029802F0C1FD06463846029901F0CFFFC7
:40424000032C06D0002C10D00121384601F04CFA03E03146384602F063FF284601F090FE0221284601F0A6FEFEBD3846029901F0B6FFFEBDB413002070B50446002503F074
:4042800055FB002801D00C2070BD2078611C02F017FBFF2802D01F25284670BD02F064FBFF2804D02178621C01F00EFFF4E70725F2E710B503F03AFB002801D00C2010BD4B
:4042C00002F0D6FA002010BD70B50D46044610210BF0AAFA1021601806460BF0A5FA334610221946204603F04DFB102130460BF09BFA02202870204604F090F870BD70B51E
:4043000004464078217802028006850FE0781143A67809050002090D0643084601F08EF8002812D0022D10D0032D0ED0002E08D00179092909D0002907D0214600F0A1F824
:4043400070BD0089002103F09EFF20460BF02CFB70BD0020704770B50446002503F0E6FA002801D00C2070BD2078611C02F0A8FAFF2802D002F0EAF900E01F25284670BD5B
:4043800010B504F0F3F800F0F6F8002010BD10B5044600786178E2780843A17811430843217908436179084305D003F0B1FA002803D00C2010BD122010BD204602F0C8FB46
:4043C000002010BD10B5044803F01AFB02F0C8F900F004F8002010BD50130020F8B5114D00266E706E736E716E76AE76EE766E75AE70EE70AE712F46EE730120B037787227
:404400003F2078719B20B87100F00AFA0024204601F06AFB641C2406240EF8D03E72FE71AE73F8BD9413002070B505460E46084602F0A0FC0446304602F0B4FC0121A9400F
:404440000A46224001400A4301D0012070BD002070BD10B50446084602F0A4FC0121A140014201D0012010BD002010BD10B5FFF79FF8032804D101F02BFF0120FFF7C8F86B
:4044800010BD70B5044600790D4609281CD000281AD020464030817E491C8176204601F06FFDA078FFF76EFE064602462946204600F00CF8002806D1A0783146FFF79AFDDF
:4044C00028460BF071FA70BD0846FAE7F7B5054648780C468006870FC8788978000282B0014368468180284601F042FB060007D021462846049A00F091FB304605B0F0BDBF
:40450000384600F039FC0746034601AA2946204600F0CAFA68468088231DC0B20090A878FF22049901F0DEFF684680883B46C2B2A878049902F088FBDFE770B50025002459
:404540002846FFF7D3FD060010D03046E040C007C00F07D02146284601F035FE21462846FFF750FE641CE4B2052CEED36D1C2D062D0EE4D070BD10B502F0F2F8FFF72EFF68
:404580000BF07AFA002010BDF8B5002400F081F80123012800D10124104F00203E4620360425082203E0002801D0002100E031460979002907D001290BD002290BD011463E
:4045C00081402143CCB2401C0006000EEBD07C70F8BD1C43F7E72C43F5E700009413002010B5FFF7D1FF10BD10B50B4681791943817103D08078114602F0EAFA10BD10B5BD
:4046000082798A43827102D1807802F0F9FA10BD70B5FF25D53502242846FEF7CFFE0C4A9178002901D0022906D1137852789A18282A01D9032402E0032900D1012441059A
:40464000490DE00201432846FEF7BEFE70BD00004E02002010B500F022F8002807D0012805D0032801D0042801D0002010BD012010BD014610B50020C90701D000F009F8A4
:4046800010BD014610B50020C90701D000F001F810BD10B52020FEF791FE000A10BD10B51820FEF78BFE410501D5042010BD4007800F10BD38B5044640060CD5684601F022
:4046C0000DFE0220FFF78CFF072002F065F96846007801F071F9200613D5FFF7E0FF01280FD1684601F0FAFD6846007800F09AFA072002F051F9012001F0AAFC0220FFF7B5
:404700006FFF38BD10B5034A0178117002F053F9002010BD4E02002010B50446FFF7B9FF002801D00C2010BDA27B01211848002A827801D00A4301E0520852008270627985
:40474000012A0FD0C17849084900C170207901280CD06188208802F051FF2080207904280BD00DE0C2780A43C270EFE7E01D02F0D7F90848808C208002E0E01D02F0D0F9A9
:40478000054920798870204602F024F9002010BD94130020401300204E02002038B50478FFF777FF844201D10C2038BD002C18D0072069460870FFF74DFF012807D10121B9
:4047C000684600F08DF8012801D0092038BD6846007802F0E1F8FFF71BFF02F02BF9012010E0FFF737FF012806D1684601F076FD6846007800F04AFA072002F0CDF802F0EE
:404800000DF90220FFF7ECFE002038BD10B5034A0178517002F0B4F9002010BD4E02002038B568460BF056F8002801D01F2038BD01210098C90201804180002505714571EA
:40484000857107214173857302F0C4F8009C202200212046FEF71EF925702A460021601CFEF718F9204602F0A6F8204602F088F900980BF099F8042200210248FEF70AF92B
:40488000002038BD4E0200200346084800B5834209D8184600F0D2FD002804D00089984201D1012000BD002000BD0000FF0E0000074A9179491C8906890E917138220A40DD
:4048C00092014907090E1143084302490840704794130020FF0E0000C006C00E70470000F8B507460E4600240D4803E0002C01D0002500E005462979002905D0641C240675
:40490000240EF3D00020F8BD204601F0EDF82E712046FFF7CDFF28813C700120F8BD0000B413002010B503F061F80222002100F003F801F0BDFE10BD10B5094B400749072E
:40494000000F090F185A595A40185043C0086421FDF7F6FF002800D1012080B210BD00006A1F0100F7B53D20405C88B016460C46002829D030786946087200252046FFF729
:40498000FBFB012800D00125204603A938300191009023460327A17E34332A46206A03F049F802A8089900900B46019120463A4603A9243002F0C8FF02466846007A307092
:4049C000204601F07DF810460BB0F0BDFFB587B00C4605461078694608723D20005D1746002826D000262046FFF7C6FB012800D00126204603A93830019100902346A17E38
:404A000034333246206A03F015F802A80090291D019120462B1D03A924300A9A02F094FF02006846007A388002D1204601F048F810460BB0F0BDF7B53C20405C88B01546E3
:404A40000C4600280CD0287869460872002806D000262046FFF790FB012803D003E01F200BB0F0BD0126204603A938300191009023460327E17E34333246E06902F0DAFFDE
:404A800002A8089900900B46019120463A4603A9243002F08BFF02466846007A2870204601F018F81046DBE7FFB505463C20405C87B016460C46002810D0084601F058F8DC
:404AC00001280BD0308869460883002809D000272046FFF751FB012805D005E000200BB0F0BD0220FBE70127204602A93830019100902346E17E34333A46E06902F09AFF3B
:404B000006A80090291D019120462B1D02A924300A9A02F04BFF02466846008B30806846008BA870000AE870204600F0D3FF1046D5E770B50D460446FFF71EFB01280AD0E0
:404B4000E87AA97A00020143A07801F081FC012808D0002070BD00222421204602F098FC242070BD28214C200155204600F09AFB282070BD002801D0002000E003484030B3
:404B8000C07F012800D0002070470000B41300200146002049070ED50021084B03E0002901D0002200E01A461279022A04D0491C0906090EF3D0704701207047B413002063
:404BC0000146002049070ED50021084B03E0002901D0002200E01A461279022A04D0491C0906090EF3D0704701207047B413002010B5044680346068002803D00AF0E8FEB3
:404C00000020606010BD4030417070474030817070474030017070470171704792001018C166704770B53C2501F02CF9040004D020460021433001F0C5FB2946204600F09A
:404C4000C0FB002C02D0A07801F0AEF870BD000010B5002801D0002000E00348002802D0008903F056FB10BDB413002010B5002801D0002000E00448002804D0017907296B
:404C800001D100F041F810BDB413002010B501F0F9F8002802D0807801F086F810BD00207047000070B50546008A00281ED010491122897A1140C90618D5294640314A8A39
:404CC000098A521C4A4392B2D10800D10121540801E0621A94B2A042FBD9FFF7D5F8012804D1298AA878224601F090FC70BD00004013002000230B60052A04D292001018FB
:404D0000C26E0A60C366704738B5044600200090A079002814D14020015D052901D00E290ED168460AF0E6FD002809D12046009902F096FB03481021C28A2046FFF754FC96
:404D400038BD00004013002010B50B4604460146184602F065F8002802D020460AF02EFE10BD13B5044601AA11460620FEF748FB6846818861811CBD002800D1022070476E
:404D800070470000F8B504462346401D543300909A1EA078911E01F0B0FA25464035A88A298A8000FDF7CCFD401E81B2688A884203D96982A07801F096FF204600214330A0
:404DC00001F000FB8020FEF7F9FAE88102F00EFEE989891C8AB26179FFF7AEFD01F068FC02F004FE2A8A6179FFF7A6FD074601F051FC688A00280BD0FF26F1363046FEF763
:404E0000DDFA0321090201433046FEF7DDFA02E0002001F056FFFF206130FEF7CFFA6E8A002E0BD070431049FDF7EAFD0004000C01D0401C80B20D49488002E00B48002165
:404E40004180288A704381B2A07801F0A7FE2837B9B2204602F0D6FBE98AA07801F0F6FDA07801F0DFF9F8BD71020000520200207FB504468034616805460E46183108223F
:404E80006846FDF7FEFD31462031082202A8FDF7F8FD102168460AF0C7FC6068102108300AF0C2FC60682B46083024331022694602F068FD7FBD10B504460821FFF79FFB47
:404EC00010212046FFF79BFB207905281FD006281DD008281AD12189002003F093F9072020712046FFF748F9014620464030012913D00E21017000210176204600F060FFEF
:404F00002046FFF775FE2046FFF7CCFE10BD20890122002103F05AF9E1E70521EAE70000FFB581B01F4604460821FFF768FB10212046FFF764FB2079082803D0092804D01A
:404F4000042203E00422012501E009220025204600F0FAFD264600204036307022712046FFF746FE0398002D02D0012808D00BE001280AD120890022029903F027F904E0A2
:404F80002189029803F03EF9012700203076012F04D0204600F014FF05B0F0BD02983073204602F0A1FA054605480121C28A2046FFF71AFB002DEFD109202071ECE70000A5
:404FC0004013002070B50C460546FFF7D5F8012809D108212846FFF712FB0023012221462846FFF79DFF70BD10B5044600F0ACFD2046FFF7FDFD00214034217010BD70B52C
:4050000005461A24FFF7B8F8012809D108212846FFF7F5FA0023012221462846FFF780FF70BD0000F8B50446002000900E4668460AF060FC002801D00D20F8BD842000592E
:4050400008212030009D00F0F4F920460421383000F0EFF9002E02D1204600F0B3FD2946204602F08DF90E480821C28A2046FFF7BBFA204600F00BFF25464035002808D002
:40508000204600F023F8002801D0092028700020F8BD08202870204600F072FFF7E7000040130020014610B540310A460978082906D0092907D00A2901D100F091F810BD6F
:4050C0000B20107010BD00F001F810BD70B50446007925464035052805D0062803D008280FD00C2070BD03220621204602F0D0F90D480821C28A2046FFF776FA1120287083
:4051000010E006202873204602F0EEF90646AA8A0A20424301212046FFF766FA002E01D109202071002070BD4013002038B504460020009068460AF0DDFB002801D00D206B
:4051400038BD2046009D00F08BF908202071204600F038FD2946204602F044F900213D2001550F2040210855204600F009FF002038BD00B5024600F0E7FC10214032117053
:4051800000BD10B50446FEF7F7FF012809D04020005D112805D100231A4606212046FFF7BFFE10BD10B5FFF786FE10BD38B504460021684600910AF09DFB00280CD120463A
:4051C000009902F086F905480821C28A2046FFF70BFA0D204034207038BD00004013002038B504460021684600910AF083FB002801D00D2038BD2046009902F05FF9054829
:405200000821C28A2046FFF7EFF90C2040342070002038BD4013002000787047F8B50025002801D0002400E01A4C002C28D0204600F093FC002823D0207903281CD0052898
:405240001CD026464036B18AA07801F0B5FCB078012815D10021204601F0FFFD274680373868002802D00AF0B3FB3D600020B0702079072805D007E0042000E0062020713E
:40528000F8BD2046FFF70EFD0221204600F092FEF8BD0000B413002010B54C22115400F046F810BD10B50446FF21FFF7A8F909202071A07801F0B0FC10BD000038B5FF218B
:4052C0006A461180002801D0002400E0064C002C08D011460620FEF793F8684601882046FFF73FFD38BD0000B413002010B504468079002809D022214C200155FF212046DE
:40530000FFF77DF9204600F012F810BD10B5037902464032002B03D01173092B02D003E0002100E02221117300F001F810BDFEB5044600890027019027812079264640368F
:40534000002817D0012815D002280AD112E002AA6946204601F052FD002807D100980AF02DFB204601F072FD0028F0D02046FEF755FEB776254680352868002802D00AF031
:4053800027FB2F606868002802D00AF021FB6F60317B002902D0019800F044F8A078002100F054FF2046FFF7BDFAA07801F03AF8A07800F0F9FC0B20FFF712F900F038FC0A
:4053C000FEBD70B50E46054602F00CFB044606702846FEF7D1FE014601204140204661700C3000F0D8FF002D10D02889608028464030C1782171002E10D169796171018A8B
:40540000E180418A2181808A608107E01820FDF7D5FFC005C00F207100206080204602F09AFE70BD0A4610B50146002002F089FF10BD10B509F0D4FF10BD000000B501466D
:40544000FFF74AFA002801D0002000E00348002802D002898A4200D0002000BDB413002038B5044680346068002806D168460AF051FA002801D100986060606838BD000015
:4054800010B5014600F074FB0128887802D0FEF77DFE10BD88214843024940186030007F10BD00009413002070B5054604464035A87F012811D1A1788820084A4843801838
:4054C0006030067F3046FEF7AFFF002805D10220A877A078314601F059F870BD941300200EB500220A216B460292198100905A811046029B00990AF0DDFA0EBD10B50E4CD9
:40550000E079002816D0FFF718F80C48827FC17F808B00F095FB01280CD10020E07100F0E6FE0446AC20FDF749FF010B02D0204600F032FA10BD00004414002094130020D5
:4055400070477047490510B5490F0B00FDF768FC060704080C0C0F073E21FFF79DFE10BD0821FFF7D3FE10BDFFF7E1FE10BDFFF7BDFE10BDF8B507460025002D01D00026CB
:4055800000E0204E00F08EFE3046403044890021418100F091FE304600F0DFFA01282CD1A00702D52846FFF739FEE00602D52846FFF784FEA00602D52846FFF791FF600614
:4055C00001D500F0F1FA200602D5284600F01CF8600702D5284600F023FA380402D52846FFF744FB780402D52846FFF731FBE00703D021463046FFF7A5FF6D1C2D062D0E11
:40560000BBD0F8BDB4130020F8B5002801D0002400E0204C002C39D025464035A878012834D1E98AA07801F011FA2046FEF7A4FD01282BD002F0DAF92A8A6179FFF77CF965
:40564000064601F027F82836B1B2204601F0DAFFE98AA07801F0FAF9FF206130FDF7AEFE6E8A0D4F0146002E11D0304648430B49FDF7C6F90004000C01D0401C80B2788005
:40568000288A704381B2A07801F088FAF8BD0020F5E70000B4130020520200207102000038B5002801D0002400E00D4C0020009068460AF01FF9002811D12046009901F09B
:4056C0003DFF607E02210843607606480421C28A2046FEF789FF0221204600F06BFC38BDB41300204013002070B50D46124A010001D0002401E014462034002C1BD02046A5
:4057000000F036FA01280AD18820484380186030007FFEF789FE002801D101F06FFE20464030817E491B8176204600F029FC2089294602F0A8FD70BD9413002070B50346DB
:405740000088FFF77BFE040013D000F006FA00280FD02079092819D02546997840352973204601F0C1FE0646A878012803D0AA8A02E0022070BDEA880A2042430121204688
:40578000FEF732FF002E01D109202071002070BD0EB5002217216B460292198100905A810120029B00990AF085F90EBDF8B5184E0024F079002820D10025AC20FDF7FEFD22
:4057C000000B21E0204600F00DFEFDF7F7FD07462A46214600F034FA01280FD00D48012187838577C477F171002D01D0002000E02030002801D000F0C3FBF8BDAC20FDF786
:40580000DDFD000B641CE4B20028DBD1F8BD0000441400209413002010B50088FFF70EFE002809D0014640310C460978082905D00B2903D00C2010BD022010BDFFF746FC9D
:40584000002801D009202070002010BD70B503460088FFF7F3FD040008D0254640352878082805D00B2803D00C2070BD022070BD8420005910220830991CFDF702F920462D
:40588000FFF7F6FA2878082804D02046FFF7A8FC002801D00A202870204600F071FB002070BD000010B50C46002121700088FFF7C5FD03000BD000F050F9002807D0094824
:4058C0001121807A0840C00603D4112010BD022010BD022020701A8A1889002102F04EFD002010BD40130020F8B50F46002100910088FFF7A3FD040012D000F02EF90028FE
:405900000ED0E079410641D4617E02264A07002A08DB8907402500291ADA2843E07135E00220F8BD02F05EF80021017021894180A1898180217E4170E189C1803E70054651
:405940000178134802F080FA284602F0BAFC1DE0204600F013F9012806D0684609F0CAFF002803D00720F8BD2A20F8BDE07900992843E071204601F0E1FD607E04213043D4
:4059800060760448C28A2046FEF72EFE0020F8BD1D040000401300203EB500220F236C460292238100910190628169460EC900200AF080F83EBD000070B5054600F062FA84
:4059C000040027D003202071254600264035EE76E6702046FFF7D6F901F020F80920FEF7FFFDA07800F00CFD0121204600F0E2FA2E706E70AE7000212046FFF7E2FC074940
:405A0000887B401C8873A078FFF74AFE012001F037F970BD284601F0FFF870BD9413002010B5002801D0002400E00A4C002C0FD020464030417802290AD10021417020460D
:405A4000FEF79AFB002803D10221204600F0B2FA10BD0000B413002070B503460D460088FFF7ECFC04000BD000F077F8002807D012481121807A0840C00603D4112070BD9A
:405A8000022070BD20464030418A008A491C41430804C10C5888884201D2122070BD20822079072802D12046FFF7FCF8022028702089002102F08AFC002070BD4013002085
:405AC000016A491C016204D1817E491C4906490E81767047C169491CC16104D1C17E491C4906490EC176704770B500250646002801D0002400E0114C002C1CD08822002155
:405B00002046FCF7C7FFA67000202646207140363070204600F018F8204601F093F9084820820848B577807A1121084000D001202075012070BD002070BD0000B4130020CA
:405B4000B80B000040130020002101628176C161C17620300177417770470079002805D0012803D0022801D001207047002070474030807F002800D00120704740300078A1
:405B8000002807D0012805D0052803D00E2801D0012070470020704710B5807801F002F9002800D0012010BD10B500F0A0FB0446AC20FDF703FC010B02D02046FFF7ECFE26
:405BC00010BD000070B5054604464035A87F002823D1FF206075A0788821144A484380186030417F8823491CC9B24177A078584380186030052901D300214177A078882126
:405C0000484380186030467F0677A1783046FEF70BFC002802D00120A87770BD0220A877A078314600F0B2FC70BD0000941300200020401C0006000EFBD0002070470000E9
:405C4000F0B515468207920F85B0C004C00E02926A469080002D01D0002400E0514C002C29D0084600F0BEFB03906846808800280BD00298012845D0022843D003280CD0BC
:405C80003D20005D012872D086E00398FDF796FB01462046FFF765F87EE00020029002A809F008FE002807D03D20005D012876D12046FFF705FF72E06846029E83883246D4
:405CC00000210398FDF7F0FA0398FDF777FB01462046FFF746F8284600F0B0FA01AA21463046FEF73FFE002806D0304609F052FE3D204C21085528E0F5773146204601F040
:405D0000EFF94CE0002000902789684609F0C2FD002802D0002005B0F0BD6846009E8388321D00210398FDF7BFFA0398FDF746FB01462046FFF715F8284600F07FFA25463C
:405D40004035287E00280CD103E02046FFF7AAFA25E001AA21463046029BFEF737FE002806D0304609F00CFE3D202873EDE710E00298FFF705F8390A0001014337707170FC
:405D800068468088B070000AF0703046FFF700FD05E02046FFF794FE284600F04FFA0120B9E70000B413002010B5044A917B002901D0491E9173FFF797FE10BD9413002075
:405DC000F8B5074606464037B87F00283DD0B0788821009048431F4945186035287F0099FEF737FB012831D0287F401CC4B2052C00D300240020B877FF276F772F77A877E2
:405E000002460146009800F041FD717DFF2903D0304600F0D8FF777501F0F0FA00252F462246694630460097FEF764FF0099002902D03046FEF725FB641CE4B2052C00D3D1
:405E400000246D1CEDB2052DEAD3F8BD0320B877F8BD00009413002010B502460021084B03E0002901D0002000E018460479944204D0491C0906090EF3D0002010BD000046
:405E8000B413002000B50120FFF7E6FF00BD10B5044601F0A7FD2189018080346168416061682831816002F0C7F910BDF7B50646087982B00C46092807D0A078F07708464C
:405EC000FFF756FE012806D010E0304609F076FD022005B0F0BDA1788820284A484380186030007FFEF7A0FA012810D0A078FEF741FE01280BD037780121304601F02BFA59
:405F000025462035062F36D00B2F0FD107E06846027C21463046FEF717FF0D20D9E72046FEF72AF9012801D1002028772046FFF7A7FA054604AA21463046FEF77CFD0120CA
:405F40005F2108556946087C0090A07833463A46294600F0C7FA69460A7CA0780323294600F072FEA0782946FEF744F8304609F025FD0020ADE70120D7E70000941300206B
:405F800010B502464032937F0021002B03D1927E002A00D00121064AD279002A00D000210279092A00D10121807800F077FE10BD4414002070B50C460646FEF7DDF8002856
:405FC00014D1012C0ED935464035A87800280DD1687802280AD03079092807D03046FFF7DBFD0446204600F086FD70BD0124F9E770B50D4601280BD0082808D1A8241146BC
:40600000B020FDF7E1F929462046FDF7DDF970BD2020FAE710B501460820FDF7D5F910BD10B50446FF20F130012C01D1FF20D530002200F07EFE1020FDF7C0F90349A04306
:40604000088001461020FDF7BFF910BD5602002010B504461020FDF7B1F90449A043088001461020FDF7B0F910BD00005602002010B50446012802D0082C07D102E0FF202B
:40608000D53001E0FF20F13000F048FE1020FDF795F904492043088001461020FDF794F910BD00005602002010B504461020FDF785F904492043088001461020FDF784F98C
:4060C00010BD000056020020F8B507460120B84085B214460E46012229467C2000F029FE32462946782000F024FE6078217800020143E078A578000205436079267900029D
:4061000006430C2047430D2080013C182046FDF75BF9241D29462046FDF756F9201D3146FDF752F9F8BD8B00034310B5D10191201943C000FDF748F910BD000070B5054608
:406140000C46407829780002014341200001FDF73BF9E878A978000201430A48FDF734F960782178000201438320C000FDF72CF9E078A1780002014302480830FDF724F9ED
:4061800070BD00001404000070B50D46044681B201208002FDF718F9210C0448FDF714F981202946C000FDF70FF970BD0404000070B5054600242846FDF700F9641CA4B2BD
:4061C000102CF8D370BD10B50C460146B020FDF7FBF8FF2021462D30FDF7F6F810BD10B50C460146B020FDF7EFF8204600F0CCFD0021FDF7E9F810BD70B50C46054600F027
:4062000005F821462846FFF7DEFF70BD10B50C460146B020FDF7D8F8FF2021462930FDF7D3F810BD10B50146B020FDF7CDF8FF20002220211D3000F07CFD10BD010210B5CD
:406240004D310020FDF7C0F810BD000010B504020029014608D0B020FDF7B6F8214675310020FDF7B1F810BDB020FDF7ADF8512000214001FDF7A8F800210348FDF7A4F81F
:4062800021467631ECE70000240A000010B554210020FDF799F810BD10B553210020FDF793F810BD10B5034908884880FFF7D0FE10BD00005602002010B502484088FFF73F
:4062C000F3FE10BD5602002010B5FDF75BF910BD10B552210020FDF777F810BD10B504461820FDF76BF88004400F207010BD10B5B020FDF763F8C0B210BDF8B50E460146CD
:406300001C461546B020FDF75FF8FF20E930FDF755F80746FF200130FDF750F83080FF200930FDF74BF82880FF200530FDF746F8208079070698490F0170F8BD10B5C820DD
:40634000FDF73CF810BD10B50C46002812D05820FDF734F82070000A60705C20FDF72EF8A070000AE0706020FDF728F82071000A607110BDFF20C130FDF720F82070000A82
:406380006070FF20C530FDF719F8A070000AE070FF20C930E8E770B504466820FDF70EF806466C20FDF70AF805467020FDF706F82670310A6170A570290AE1702071000A41
:4063C000607170BD10B50446012905D01820FCF7F5FFC00B207010BD4820FCF7EFFF8007C00FF7E70120C002704710B50C460146B020FCF7E9FF0321A0014902401810BDF5
:406400008821074B414310B5C918FF2260314A770A7700228A77114600F038FA10BD00009413002088225043074A10B58018FF21603041770177002181770448418EFF20F5
:406440001D3000F06BFC10BD941300204013002010B50C460146B020FCF7B6FFFF202530FCF7ACFF0222214600F002F810BD000010B50023884201D8081A03E00024E4436C
:40648000201A4018044980B2884201D8824200D90123184610BD0000FF7F0000F8B503465078167800020643D07895780002054350791779000288240743002900D0982482
:4064C0001946B020FCF780FF31462046FCF77CFF201D2946FCF778FF204608303946FCF773FFF8BDFFB581B014460D4606460A9FFFF77BFF3B460021049AFCF745FF0248AB
:406500004019845505B0F0BD5A02002070B506460D4611242520A40108214001FCF754FF2B46324600212046FCF72EFF70BD70B5212405466401FFF7AFFE10232A4600217A
:406540002046FCF721FF70BD10B5044640782178000201438F20C000FCF736FFE078A178000201430148FCF72FFF10BD7C04000010B50C460146B020FCF726FF802021467D
:406580000143FF202930FCF71FFF10BD70B50D460146B020FCF718FFFF241D342046FCF70DFF01090901FF202943013001432046FCF70AFF70BDF8B500242646012807D0EF
:4065C000032802D0052808D105E002240A2604E004240C2601E004240D26492701463F013846FCF7F1FE25204001FCF7E7FEC5B228462042F7D0252031464001FCF7E4FE4E
:4066000000213846FCF7E0FE2846F8BD70B50D46044601461646B020FCF7D6FE512029464001FCF7D1FE31460648FCF7CDFE032189030820FFF71CFD210275310020FCF7A2
:40664000C3FE70BD240A000070B50D4604460146B020FCF7B9FEFF2029461930FCF7B4FE21024B310020FCF7AFFE70BD70B5491E8CB205460146B020FCF7A6FEFF2021462A
:406680001930FCF7A1FE29024C310020FCF79CFE70BD0000054910B5884200D908460146FF206130FCF790FE10BD0000FF0F0000054910B5884200D908460146FF20653027
:4066C000FCF782FE10BD0000FF0F000070B588251446002900D098250146B020FCF774FE2846FCF76BFE2070000A6070281DFCF765FEA070000AE07028460830FCF75EFEC0
:406700002071000A607170BD10B51446024611200B4680010021FCF723FE012C01D1FFF7B5FD10BD10B504460920C001FCF746FE2070000A60700448FCF740FEA070000A7C
:40674000E070FFF7A3FD10BD840400000121814010B589B200227C2000F0EBFA10BD000070B5FF210120FFF75BFCFF210820FFF757FC3020FFF76CFC80210020FCF724FED3
:40678000002211460320FCF73BFE374DFF20A98DD530FCF719FE0024FF26F1362146B020FCF712FE298F3046FCF70EFE2046FFF739FE641C2406240EF0D0FF20A98FF930A3
:4067C000FCF702FE28481030044600F079F9204600F0BEF900F04CF8234CB82040346188FCF7F2FDA188BC20FCF7EEFDE188C420FCF7EAFDFF20698EE130FCF7E5FDA120BC
:4068000000210001FCF7E0FD3920FFF74DFCFFF743FD93200721C000FCF7D6FDFFF736FDE020FFF7C5FCE820FFF7C2FCF020FFF7BFFC0020FEF776F8618A0C48FCF7C4FD64
:406840000A482821001DFCF7BFFDFF210131AC20FCF7BAFD832000218000FCF7B5FD5B210020FCF7B1FD70BD40130020140A000010B500217C20FCF7A7FD00217820FCF740
:40688000A3FD74210020FCF79FFD10BD70B50D4601461446B020FCF797FDFF261D363046FCF78CFD01090901FF20294301308143002C01D1102041403046FCF785FD70BDF2
:4068C000F3B589B0FF2001900D208001009048780D7800020543C8788E780002064348790979000201437C200791FCF767FD06907820FCF763FD059074210020FCF764FD76
:4069000018480024049026E00120A04087B20098FCF754FD03900098FCF750FD02900098FCF74CFD039A29465140029A72401143079A424011430BD10698074208D0059864
:40694000E040C1070998C90F814201D1019405E0641C0498E4B20078A042D5D801980BB0F0BD00008013002070B5FF257C20FCF725FD0849002401230A7805E01946A14000
:40698000014205D0641CE4B2A242F7D8284670BD2546FBE78013002010B504461820FCF70DFD0721C90288436107890C01431820FCF70AFD10BD10B50446E020FFF7F8FB21
:4069C00020782246401CC3B20021E020FCF788FC10BD000010B5044641790079042817D040000843A17B032901D8C9000843617B4A010243A079010207201143C002014343
:406A00001820FCF7E1FC21881C20FCF7DDFC10BD08460149E5E700000204000010B5012000F02EF90120FFF713FB41210020FCF7CBFC10BD10B5002000F022F90120FFF734
:406A400033FB40210020FCF7BFFC10BD10B50C460146B020FCF7B8FCFF2021460D30FCF7B3FC10BD70B50C4601461E461546B020FCF7AAFCE92021468000FCF7A5FC7520E6
:406A80002946C000FCF7A0FCEB2031468000FCF79BFC6C433B20A1B20001FCF795FC70BD70B50C4601461546B020FCF78DFC21468420FCF789FC29468020FCF785FC70BDE5
:406AC00010B504464078217800020143FF20C130FCF77AFCE078A17800020143FF20C530FCF772FC6079217900020143FF20C930FCF76AFC10BD70B5A12405462401204694
:406B0000FCF75CFC012D07D041084900814202D02046FCF759FC70BD014601221143F5E710B5044640782178000201436820FCF74BFCE078A178000201436C20FCF744FC8B
:406B400060792179000201437020FCF73DFC10BD10B5044640782178000201435820FCF733FCE078A178000201435C20FCF72CFC60792179000201436020FCF725FC10BD2B
:406B800010B50446E820FFF713FB20782246401CC3B20021E820FCF7A3FB10BD10B50C460146B020FCF710FC21460248FCF70CFC10BD00001C0A000010B50C460146B02068
:406BC000FCF702FCFF2021460530FCF7FDFB10BD70B5054688000521FBF7B2FE84B22946B020FCF7F1FB21460448FCF7EDFB290272310020FCF7E8FB70BD0000040A000090
:406C000010B504460146B020FCF7DEFB210273310020FCF7D9FB10BD10B504460146B020FCF7D2FB210270310020FCF7CDFB10BD10B504460146B020FCF7C6FB21027131F6
:406C40000020FCF7C1FB10BDF8B505461E4614460F46084600F098F800902802A1000843304304462946B020FCF7AEFB21460098FCF7AAFB0148C0194655F8BD5F020020D7
:406C800010B50446B820FCF799FB8005800DA102014389B2B820FCF797FB10BD70B50D460146B020FCF790FBFF241D342046FCF785FB40218843A90101432046FCF784FBBC
:406CC00070BD70B5A124054624012046FCF776FB0222002D01D0104300E0904301462046FCF772FB70BD70B50D460146B020FCF76BFBFF2029460930FCF766FBA1242401F4
:406D00002046FCF75BFB0222002D01D0104300E0904301462046FCF757FB70BD70B50C460546FCF74BFB204301462846FCF74CFB70BDF8B516460D460746FCF73FFB0146C6
:406D400000202C0003D104E06408401C80B2E207FAD08640A9430E43B1B23846FCF734FBF8BD0000024A1018405C8007800F70475F02002010B50146B020FCF725FBFF203B
:406D80002D30FCF71BFB10BD8000FF30413070470246FF20052902D201484018805C70475A02002010B50146B020FCF70DFBFF202930FCF703FB10BD0A4600B50146104601
:406DC000FFF7E6FF00BD38B50C46054600216846009108F08FFD002804D1009928464C7000F09EFB38BD10B5044680780021FFF72DFE01212046FFF7DDF810BD436E002B0A
:406E00000CD00B60014660318B781370826E4266CA788A700021816608467047FF20704710B50346446E6033002C04D0846E002C04D0FF2010BD41669A7001E08166DA7002
:406E4000002010BD0021416681667047406E002801D000207047FF20704770B50446C0790D46810610D5DF210840E07100F0BAFD0570218941804034218A8180618AC18098
:406E8000A18A018101F03AF970BD000010B50446FEF76EFE01280AD1A1788820054A484380186030007FFDF7BFFA012801D000F0A5FA10BD9413002070B50D460446FDF79E
:406EC0005BF901281CD02079042801D0072816D1E879AE7900020643A0783146FFF7B8FA012813D03246691C204600F035FA02212046FDF788FE01212046FFF75BF870BDE4
:406F000001222421204600F0C3FA70BD28214C2001552046FEF7C6F970BD70B50D460646FDF707FE002847D120213046FDF767FB3446687840346073E87820220002E081A7
:406F4000A9780843E0816879010228790843218A814203D0F1791143F1712082E8790102A8790843618A814203D0F1791143F1716082687A0102287A0843A18AE1808142FD
:406F800003D0F1791143F171A082A08A218A8000FBF7D6FC401E618A80B2814200D9608201213046FDF732FEE87AA97A000201430022304600F0DCFA70BD0000F8B50C4699
:406FC0000546FDF7D9F8012849D0294EB07AC00709D02846403000900078002805D0102805D01F212EE01A212CE0002700E001272846FEF735FA002823D02E468036082249
:40700000611C7068FBF73DFD7068617A20300172A17A417270682146183008220B31FBF730FD21462846042213313430FBF729FD39462846FDF7F6FF002810D1002F0FD0D7
:4070400012E007210322284600F022FAF28A08212846FDF7C9FA11212846FDF7DAFDF8BD06212846FDF7D8FD009801210176F8BD4013002010B5FEF715F810BD38B50446EB
:407080000020009020790D46042801D007281BD12046FDF771F8012817D0684608F02AFC002811D10C486A78807A00991040112210402075607E082210436076204600F0BB
:4070C00079F92046FDF7EBFD38BD08222421204600F0DEF938BD0000401300207047000070B506460D460846FEF796F804463046FEF733FD00280CD0142C04D329463046B2
:4071000000F0C7F805E00549A0000A58294630469047284608F03EFC70BD00007C1F010070B50D460021002801D0002400E00C4C002C14D020464030C177807F032802D13D
:407140002046FEF73DFE2046FFF7A0FE142D04D20449A800095820468847FEF769FD70BDB4130020CC1F010010B5014640310C4609780E2903D1FDF7D9FF0120207610BDD7
:4071800010B54021095C0F2901D1FDF7F2FF10BD4021095C0F2902D1002120304177704738B5044600220E4800920D46807A11210840C0060ED52046FEF7E0FC012809D0ED
:4071C000684608F097FB002803D12046009900F053F938BD2946204600F05BF838BD00004013002010B51021FDF709FA10BD10B54978FDF7E7FE10BD10B5FDF7C2FF10BD7E
:40720000012120304177704710B54021095C0C2901D1FDF7CBFF10BD10B54021095C0D2901D1FDF7BFFF10BD70B5044600790D46052803D0062801D0082802D12046FDF7A7
